:060000000C9468000C9452
:1000060000000C9400000C9400000C9400000C946A
:1000160000000C9400000C9400000C9400000C945A
:1000260000000C9400000C9400000C9400000C944A
:1000360000000C9400000C9400000C9400000C943A
:1000460000000C9400000C9400000C940000102793
:10005600E80364000A00010000100001100001001E
:100066000000000031323334414270617373776FA0
:10007600726420697320636F72726563740025640D
:100086000041004200430044000080C00400040018
:1000960066000600A6016A001400600170000100F7
:1000A6007401830002007501870002007701890050
:1000B600020079018B0002007B018D0001007D01A9
:1000C60083000200C40190000000F894EE27ECBB08
:1000D600F1E0FBBFEBBFE5BF8DE0A2E0BB27ED93F0
:1000E6008A95E9F780E094E0A0E6ED930197E9F7B9
:1000F600E2E9F0E085919591009761F0A591B591BF
:1001060005901590BF01F00105900D920197E1F75A
:10011600FB01F0CFEFE5EDBFE4E0EEBFC0E6D1E0D6
:100126000C949500EFE0EABBE0EFEBBBE0E0E7BB49
:10013600E8BBE4BBE5BBE1BBE2BBE3BFE2BFECBFB0
:10014600EFBDEEBDEDBDECBDE7BDE6BDEBBDEABD69
:10015600E9BDE8BDE2BDE5BDE4BDE3BDE9BFE5BF80
:10016600E4BFEAB9E0E8E8B9E0E0E0BFE6B9EDB936
:10017600E6BFA0E10E947F022297E4E6E883E0E082
:10018600E983F2D0E883F983A881B9811DD00E9462
:10019600A004A6EAB1E00E946604E03071F469D1D9
:1001A600A0E6B1E087D10E94A004A4E7B1E00E94D6
:1001B6007A04A8E8B3E10E94E904A9E1B0E00E944C
:1001C600E9042296D9CFFFCFBA93AA93A881B98121
:1001D6001A9734F4A881B981A436E0E0BE0709F481
:1001E6001DC0EEE7F1E0FA93EA93E4E8F0E0FA9353
:1001F600EA93EC81FD810E94FB040E94380584E0AD
:100206000E94210428960E94A004AEE7B1E00E9455
:100216005504AEE7B1E04ED10E94A504A881B9818C
:100226001A9774F0A881B9811E9751F0A881B981F7
:100236001F9731F0A881B981A436E0E0BE0709F422
:1002460031C0E881F981EA30A0E0FA0739F4A7E87D
:10025600B0E00E94AC04A5E7B1E020C0EB30A0E01E
:10026600FA0739F4A9E8B0E00E94AC04A7E7B1E0C8
:1002760015C0EC30A0E0FA0739F4ABE8B0E00E9414
:10028600AC04A9E7B1E00AC0ED30A0E0FA0751F4EA
:10029600ADE8B0E00E94AC04ABE7B1E00E945504C3
:1002A6000E94A504A881B9811E9761F52297A8E846
:1002B600B1E00E948704E883F9833197E883F983E4
:1002C600E857FE4FA0E0A083D4D0E0E0EA93A0E098
:1002D600C3D0A8E8B1E0EED0E881F981AFE0B0E0A4
:1002E6000E9418052F01A881B981E0E1F0E00E9483
:1002F6001305A1E0B0E00E9418053F014A92A62D21
:10030600ABD02296A881B9811F9771F44424552455
:1003160066247724AED04A92A62D9ED00E94A004D1
:10032600ADE7B1E00E947A04E0E1F0E0E415F505FE
:1003360021F400240614070409F006C044245524B9
:10034600F30131963F013197E0E1F0E0E415F50560
:1003560029F4E1E0F0E0E615F70509F004C04424CD
:1003660055246624772483C01A930A9304E610E082
:10037600DB98DA9AD99AD89ACC9902C00FE010E0A5
:10038600CD9902C007E010E0CE9902C004E010E06B
:10039600CF9902C001E010E0DB9ADA98D99AD89A90
:1003A600CC9902C000E010E0CD9902C008E010E050
:1003B600CE9902C005E010E0CF9902C002E010E03D
:1003C600DB9ADA9AD998D89ACC9902C00EE010E056
:1003D600CD9902C009E010E0CE9902C006E010E017
:1003E600CF9902C003E010E0DB9ADA9AD99AD8983E
:1003F600CC9902C00DE010E0CD9902C00CE010E0EF
:10040600CE9902C00BE010E0CF9902C00AE010E0DE
:10041600F801099119910895AA93E2B3EF70AE2FEE
:10042600E881E07FEA2BE2BB8DE08A95F1F7929AAC
:100436008DE08A95F1F792988DE08A95F1F788C05C
:10044600AA93A881E9DFE881E295E883A881E4DF41
:1004560085E88A95F1F77CC0AA93E881F0E0EC5331
:10046600FE4FE081A981AE0FEBDF9980888022964E
:100476000895A2E00E94AF04ACE0E2DFA1E00E9492
:10048600AF04E0E08E2E9E2E0895AA93A881AA308E
:1004960011F09B1448F0E0E0EA938394A82DDCDF8A
:1004A600A881AA3009F454C09394909AA881C8DF11
:1004B60090984EC0BA93AA931A93A981BA81ED91E6
:1004C600A983BA831E2FE03019F0A12FDEDFF5CF06
:1004D60010C0BA93AA931A93E981FA813196E983F7
:1004E600FA833197E4911E2FE03019F0A12FCDDF6A
:1004F600F3CF188123960895AA93E1B3E06FE1BB89
:100506008A9A889A899A929890989198B880E88160
:10051600E058E093C601E881E054E093C701A4E106
:10052600B0E00E94E9040E94B5040E94B5040E944E
:10053600B504A0E271DF88EC90E00197F1F7A8E23C
:100546007FDFA4E07DDFA5E87BDFA6E079DF91DF32
:1005560021960895BA93AA931A930A93AA81BB8106
:1005660012960E943005309759F1AA81BB811496E4
:100576000E9430058F01309761F00230E0E01E07DF
:1005860098F0F80131978F01AA81BB811496ED93FB
:10059600FC93AA81BB811296ED91FD913196FE9353
:1005A600EE933197AC81A083AA81BB810E9430056E
:1005B600FF232AF0ED91FD913196FE93EE9306C04E
:1005C600AA81BB81EFEFFFEFED93FC9319810881C0
:1005D60025960895BA93AA9326970E943D0510E0A2
:1005E600AC85BD85E0E0F0E0ED93FC93EA89FB89FC
:1005F6003196EA8BFB8B3197E4912E2FE03009F48C
:1006060015C1E12FE03039F4253211F411E002C0B2
:100616000E94BD040AC1E130A9F4253219F40E94F2
:10062600BD0402C112E040E000E02D3211F401E009
:10063600FCC02B3211F44BE2F8C0203211F440E238
:10064600F4C002C0E23039F450E013E0203311F474
:100656000068EBC003C0E33009F0E7C0203310F0B8
:100666002A3308F007C0AAE05A9F502DE22FE05324
:100676005E0FDBC0E22FE33649F40E94C404E8892A
:10068600F989A481AA930E94CA04CEC0E33741F433
:100696000E94C4040E94D0040E9487041E2F0AC030
:1006A600E03761F40E94C4040E94D0040E949304BF
:1006B6001E2F086002600F7730E034C0E43611F078
:1006C600E93611F4046002C0E53731F4E4E5F0E000
:1006D600EE83FF8315E00CC0E83511F4086003C013
:1006E600E83709F0A1C0EEE5F0E0EE83FF8314E001
:1006F60002FF14C00E94C4040E94DA04AB85AA2338
:100706003AF4EA85FB850E94F704EA87FB874DE207
:10071600403011F01F5F01C00B7F04C00E94C4046B
:100726000E94DA0400FD11C0151778F407FF08C00F
:1007360002FF04C00B7F242F115001C020E301C02B
:1007460020E20E94BD045150EFCF312F01FF17C0A8
:100756003030A1F003FF06C0EE81FF812591EE83C4
:10076600FF8305C0AE81BF812D91AE83BF830E94FA
:10077600BD04503009F051503150EACF4BC020E350
:10078600EE81FF810E943405E887F987EE81FF81BB
:100796003296EE83FF83E885F985AA85BB85AE1779
:1007A600BF0750F02F5FA885B985EA85FB85EA1B50
:1007B600FB0BEA87FB87EFCF2A3328F003FF02C043
:1007C600295F01C0295D04FD1AC0213320F4A885E4
:1007D600B985119709F409C0531710F000FF01C03D
:1007E60013C020E207FF0BC020E3006102FF07C031
:1007F6000B7F4A930E94CA04503009F051500E9460
:10080600BD04503009F051503150A885B985129772
:1008160008F0B5CF00FF08C0503031F05150E0E28B
:10082600EA930E94CA04F8CF10E0E0CEAC85BD85FD
:100836000E9430050E94440564960895FF92F82EA2
:1008460026970E943F050E94E204309719F4EFEFC5
:10085600FFEF23C0DE0116960E94F3048D010E946D
:10086600E204EE83FF83E0E0E887E987DE011A967B
:100876000E94F3040E943005FA93EA931A930A93AE
:10088600EDEAF2E0FA93EA93DE011A96A3DE9F01FF
:10089600AE81BF81E0E0EC93F9010E9446052A96FD
:1008A600FF900895BA93AA93E991F991A991B99104
:1008B600CD016D916623E9F7119761916D936623DA
:1008C600E1F7FC010895BA93AA93E991F991A991E8
:1008D600B9916D917191671721F46623D1F7EE27CF
:1008E6000895671BE1F3E1E008F4E2500895BA9336
:1008F600AA93E991F991A991B991CD0161916D936D
:100906006623E1F7FC010895BA93AA93A991B991D8
:10091600EE27FF276D91662311F03196FBCF0895E0
:10092600BA93AA93AA27BB27E991F99105900020CB
:1009360011F01196FBCFFD010895E8E8F1E0FA9376
:10094600EA930895F20131962F014A92A62D0C944E
:100956002F020E946C02F1CF0E942302A3E0B0E0B6
:100966000C94E904A0E30E940F0288EC90E0019742
:10097600F1F708952A93AD85BE85EF85F889099527
:100986000895E889F9893497E88BF98B0895AD8540
:10099600BE85EF85F88909950895A889B9891496C1
:1009A6000E943005EE83FF83AE81BF810895A8893A
:1009B600B98914960E943005EA87FB870895DE01FF
:1009C6001C960E94F3040E9430050895109639F093
:1009D60080ED97E00197F1F7A8951197C9F708956B
:1009E6000024AF0DB01D0895F195E195F0400895EE
:1009F6006F2F660F660B762F08950024112490E161
:100A0600AA0FBB1F001C111C0E1A1F0A18F40E0E8B
:100A16001F1E01C0A1609A9599F7FD01D0010895A6
:100A26000ED0EBDF0EF4E0DF0895E894F7FF02C086
:100A3600DBDF6894EA23FB230EF4D6DF0895E894FF
:100A4600F7FF02C0D1DF6894B7FF06C0A095B09546
:100A5600119600F8039400FA0895ED91FC91119710
:100A660008950590F491E02D08957A936A93FA9388
:100A7600EA9308955A934A933A932A931A930A93B8
:100A860008955D814C813B812A81198108810895F1
:00000001FF
